:020000040800F2
:10000000503C012069020008E91B00086511000846
:100010003D1B0008210B00082739000800000000E4
:10002000000000000000000000000000B101000816
:10003000C50C00080000000005020008B9310008E6
:10004000830200088302000883020008830200087C
:10005000830200088302000883020008830200086C
:10006000830200088302000883020008830200085C
:10007000830200088302000883020008830200084C
:1000800083020008830200088302000800000000C9
:1000900000000000000000000000000083020008D3
:1000A000830200088302000883020008830200081C
:1000B00069320008830200088302000883020008F6
:1000C00083020008830200088302000883020008FC
:1000D0008302000883020008830200080000000079
:1000E0008302000883020008830200080000000069
:1000F0000000000000000000000000008302000873
:100100000000000083020008830200088302000848
:1001100000000000000000000000000000000000DF
:10012000830200088302000883020008830200089B
:100130008302000800000000000000000000000032
:100140000000000000000000000000008302000822
:10015000830200088302000883020008A136000819
:100160008302000883020008000000000000000075
:10017000000000000000000000000000000000007F
:1001800000000000830200080000000000000000E2
:100190008302000883020008DFF810D000F0FEFAA6
:1001A00000480047E9430008AFF30080503C0120BD
:1001B0002A4B19680868B0E8F04F80F30988BFF34C
:1001C0006F8F4FF0000080F311887047000000002F
:1001D00006480068006880F3088862B661B6BFF31D
:1001E0004F8FBFF36F8F00DF00BF00BF08ED00E04F
:1001F000DFF80C00016841F470010160704700BF36
:1002000088ED00E0EFF30980BFF36F8F134B1A689E
:100210001EF0100F08BF20ED108A20E9F04F10608B
:1002200008B44FF0500080F31188BFF34F8FBFF335
:100230006F8F05F021FA4FF0000080F3118808BCA1
:1002400019680868B0E8F04F1EF0100F08BFB0EC56
:10025000108A80F30988BFF36F8F70472800002051
:10026000EFF30580704700000648804706480047C6
:10027000FEE7FEE7FEE7FEE7FEE7FEE7FEE7FEE756
:10028000FEE7FEE7013200089901000840EA010399
:100290009B0703D009E008C9121F08C0042AFAD23C
:1002A00003E011F8013B00F8013B521EF9D2704700
:1002B000D2B201E000F8012B491EFBD270470022A8
:1002C000F6E710B513460A4604461946FFF7F0FF55
:1002D000204610BD2DE9FE4F81EA030404F00044DE
:1002E00021F0004100944FF0000B23F0004350EA4E
:1002F00001045ED052EA03045BD0C3F30A54C1F395
:100300000A552C44A4F2F3340194A0FB0254C1F327
:10031000130141F48011C3F3130343F4801301FB71
:10032000024400FB034E840A970A44EA815447EAD8
:100330008357A4FB076802958D0A05FB07854FEAE2
:10034000932C04FB0C542705029D4FEA065847EAFC
:100350001637B5EB08056EEB070C870E920E47EAD1
:10036000811742EA8312A7FB0201B6EB0B0164EB93
:1003700000042B0D43EA0C335E1844EB1C50DA46A4
:100380005146E7FB0201C5F313044FEA0B3343EA7E
:1003900014534FEA0432019C43EA0603A4F10C040F
:1003A0000294009CCDE900B400F0EAF803B0BDE887
:1003B000F08F00200146F9E72DE9F04D81EA0304B2
:1003C00004F0004B21F0004514464FF0000A23F0E2
:1003D000004150EA050220D054EA01021DD0C5F3C5
:1003E0000A570246C5F31303C1F31300C1F30A56BB
:1003F00040F4801543F48013A7EB0608101BD64683
:1004000008F2FD3873EB050002D308F1010801E0A2
:1004100092185B41B8F1000F03DA00200146BDE8F5
:10042000F08D00204FF48011064684460EE0171B25
:1004300073EB050705D3121B63EB050306434CEA78
:10044000010C49084FEA300092185B4150EA01075D
:10045000EDD152EA030012D082EA040083EA0501DA
:10046000084305D0101BAB4106D20122002306E051
:1004700000224FF0004302E06FF0010253101AEB2C
:1004800006004CEB085110EB0A0041EB0B01BDE8F4
:10049000F04D00F066B800F0004230F000400AD0A5
:1004A000C10D01F56071C0F3160042EA0151C208A6
:1004B00040071143704700200146704701F0004398
:1004C00030B421F0004150EA010206D00A0DA2F535
:1004D0006072C1F31301002A02DC30BC00207047B7
:1004E000440F44EAC104C100E01830BC00EBC25024
:1004F000AFF300800029A8BF7047401C490008BF27
:1005000020F00100704710B4B0FA80FC00FA0CF043
:1005100050EA010404BF10BC704749B1CCF120047B
:1005200021FA04F411FA0CF118BF01212143084308
:10053000A3EB0C01CB1D4FEA00614FEA102042BF34
:10054000002010BC704700EBC35010440029A4BF2A
:1005500010BC7047401C490008BF20F0010010BCCF
:10056000704710B5141E73F1000408DA401C41F105
:10057000000192185B411A4301D120F0010010BD27
:100580002DE9F04D92469B4611B1B1FA81F202E09D
:10059000B0FA80F22032904600F012F904460F467D
:1005A00040EA0A0041EA0B0153465A46084313D079
:1005B000114653EA010019D0C8F14002504600F03C
:1005C0000EF905460E4650465946424600F0F8F8E8
:1005D000084305D0012004E020463946BDE8F08DEF
:1005E0000020054346EAE0762C4337430A9863052A
:1005F000E40AA0EB08000022FD0A44EA47540A304E
:1006000002D500200146E9E7010510196941DDE93D
:10061000084500196941BDE8F04DA2E72DE9FE4FFC
:10062000804681EA0300C00F0C46009021F0004193
:1006300023F00045B8EB0200A94105D2404621460F
:1006400090461C460B46024623F00040104347D01C
:10065000270DC7F30A00C3F30A510290401A019014
:1006600040286BDAC3F3130040F4801B00989246D5
:1006700020B10023D2EB030A63EB0B0B0198594620
:10068000C0F14002504600F09BF806460D46504629
:100690005946019A00F0B3F810EB080061410024BC
:1006A00087EA115284EAE7731A4340D0009A62B392
:1006B000019A012A4FEA075215DC001B61EB020187
:1006C0004FF0004202EA0752CDE90042001C41F51A
:1006D000801132462B46FFF753FF03B0BDE8F08F81
:1006E00040462146F9E7001B61EB0201001C41F581
:1006F000801300185B412018A2F5001747EB030197
:1007000040EAD570B6196D4111E06D084FEA360622
:1007100045EAC0754FEA0752001B61EB0201001C5D
:1007200041F5801149084FEA300000195141324625
:100730002B4603B0BDE8F04FFFF713BF009801222E
:1007400040000023D0EB020263EBE07300982146E7
:100750004FEAE074B8EB000061EB0401E9E783F0D5
:1007600000435BE781F0004158E7000030B5041E0C
:1007700071F1000404DB4FF00044404264EB0101DE
:10078000141E73F1000405DB1C464FF00043524277
:1007900063EB04038B4208BF824230BD064C074D19
:1007A00006E0E06840F0010394E807009847103441
:1007B000AC42F6D3FFF7F4FC80640008A0640008A4
:1007C000202A04DB203A00FA02F100207047914011
:1007D000C2F1200320FA03F3194390407047202A06
:1007E00004DB203A21FA02F00021704721FA02F3DB
:1007F000D040C2F120029140084319467047202A98
:1008000006DBCB17203A41FA02F043EAE07306E038
:1008100041FA02F3D040C2F1200291400843194648
:1008200070472DE9F04D00231A461B1A8A4103DB5D
:1008300000200146BDE8F08DC1F30A52C1F3130157
:1008400041F480154FF0000BD10702D100186D4123
:10085000521E0027044640F2FF11384601EB620A9F
:100860003E468046024600204FF48011FFF7B7FF56
:10087000C2197141BB1846EB0100B4EB030C75EBD8
:10088000000C04D3E41A65EB000517460E46241944
:1008900008F101006D4180463428E3DDF91946EB8B
:1008A0000600091BA84103D24FF0FF32134601E0B6
:1008B000002213461BEB070046EB0A51BDE8F04D42
:1008C000FFF74FBE70B58C1810F8015B15F00703E9
:1008D00001D110F8013B2A1106D110F8012B03E0D9
:1008E00010F8016B01F8016B5B1EF9D12B0705D4E1
:1008F0000023521E0DD401F8013BFAE710F8013B2A
:10090000CB1A921C03E013F8015B01F8015B521E45
:10091000F9D5A142D8D3002070BD21B1826842F040
:100920000102826003E0826822F001028260704767
:100930000021084A1168084A1140D0E900231A43EF
:1009400083681A43C3681A431143044AC2F8041364
:100950007047000004230140E030FCFF002001400C
:1009600000B58BB00121080202F09EF801210802B7
:1009700002F0AAF800214FF4807002F0A5F80020E0
:10098000099007904FF48030089000200A9007A843
:10099000FFF7CEFF00208DF809000590039001209D
:1009A0008DF81800002001908DF8080001A9044876
:1009B00000F016F801210248FFF7AFFF0BB000BDB1
:1009C000002001400146C86C80B2704702460020FA
:1009D00013680B400BB1012000E0002070470000BD
:1009E00030B50246002000235068104C20400D799D
:1009F0000C6844EA05242043506090680C4C204069
:100A0000D1E903542C438D682C434D7944EA4504C5
:100A100020439060D06A20F470000C7D641EE4B224
:100A2000234340EA0350D06230BD0000FFFEFFFCCC
:100A3000FDF7FFC0F0B504460D4600200021092D4A
:100A400011DDE068A5F10A0606EB4607072606FA5F
:100A500007F18843A5F10A0606EB460603FA06F1FC
:100A60000843E0600CE0206905EB4507072606FA1D
:100A700007F1884305EB450603FA06F108432061B8
:100A8000072A0FDA606B561E06EB86071F2606FA4A
:100A900007F18843561E06EB860605FA06F1084361
:100AA000606322E00D2A0FDA206BD61F06EB860763
:100AB0001F2606FA07F18843D61F06EB860605FABD
:100AC00006F10843206310E0E06AA2F10D0606EB90
:100AD00086071F2606FA07F18843A2F10D0606EBEA
:100AE000860605FA06F10843E062F0BD816841F030
:100AF00080418160704700001CB50121022001F097
:100B0000B3FF0220009003208DF8040000208DF830
:100B100007006946014800F093FA1CBD000402403A
:100B200000BFFEE710B5044600F0CEF84348007859
:100B300000287CD04248008818B9204600F066F9A9
:100B400006E03F480088012802D1204600F0E6F97F
:100B50003C48008800F57A7000EE100AB8EEC00A32
:100B60003948D0ED000A30EE200A3848D0ED000AAE
:100B700030EE600ABDEEC00A10EE100A00B2344931
:100B800008803048008800F57A7000EE100AB8EE50
:100B9000C00A2D48D0ED000A30EE600A2B48D0ED97
:100BA000000A30EE600ABDEEC00A10EE100A00B274
:100BB000284908802348008800F57A7000EE100A62
:100BC000B8EEC00A2048D0ED000A30EE600A1F4897
:100BD000D0ED000A30EE200ABDEEC00A10EE100A79
:100BE00000B21D4908801748008800F57A7000EEB1
:100BF000100AB8EEC00A1448D0ED000A30EE200A00
:100C00001248D0ED000A30EE200ABDEEC00A10EE08
:100C1000100A00B2114908800846B0F900300E48A9
:100C2000B0F900200B48B0F90010094800E003E0DB
:100C3000B0F9000000F084FF10BD0000B8000020F3
:100C4000FA000020F8000020DC000020E000002076
:100C5000BC000020BE000020C0000020C200002018
:100C60002AE001F0B5FF1548007800F0CFFB1448EA
:100C70000078FFF757FF12480078401C10490870B1
:100C80000E480078401C0D4908700D480078012876
:100C900001DD002001E00A48007809490870074892
:100CA0000078012801DD002001E0044800780349B4
:100CB0000870042004F0AEFBD3E700005D010020C3
:100CC0005C0100207047000010B51E480088B0F598
:100CD000AF7F03DD01201C49087002E000201A49A3
:100CE00008701A4890ED000ADFED190AB4EEE00A28
:100CF000F1EE10FA1FDD90ED000ADFED160AB4EEFA
:100D0000E00AF1EE10FA16D2134890ED000ADFED7A
:100D1000100AB4EEE00AF1EE10FA0CDD90ED000AD4
:100D2000DFED0C0AB4EEE00AF1EE10FA03D2012076
:100D30000A49087004E000200849087000F0B6F87D
:100D400010BD0000F8000020B900002008010020BC
:100D5000000070C20000704204010020B8000020B2
:100D60001CB500BF00F0C2FC0028FBD100F066FFFC
:100D700000BF00F03BFF0028FBD100F0AFFF0520D3
:100D800000F0D2FB00F058FC00F050FC01F028F914
:100D90004FF40051114800F0C7F901F01DFA02F0BC
:100DA00095FC4FF4407001F085F802F06DFA0C48A4
:100DB000022100234A02CDE900100AA10D4805F0E6
:100DC00049F80D48012100230A02CDE900100BA1CA
:100DD0000D4805F03FF804F0FDFB1CBD0004024087
:100DE00054010020436F6E74726F6C5F7461736B9B
:100DF00000000000610C00085801002053656E647B
:100E00005F7461736B0000009930000810B50446F0
:100E1000BCB11848D0ED000A174890ED000A1748F9
:100E200001F050F9164880ED000A1648D0ED000A8E
:100E3000154890ED000A154801F044F9144880ED7A
:100E4000000A1448D0ED000A0D4890ED000A12483F
:100E500001F038F9114880ED000A1148D0ED000A80
:100E60000B4890ED000A0F4801F02CF90E4880ED78
:100E7000000A10BD08010020F0000020EC3601201F
:100E8000C400002004010020EC00002018370120DD
:100E9000C80000202001002044370120DC00002091
:100EA0002401002070370120E000002010B54FF42D
:100EB0008051154800F038F914480088C01E00B26F
:100EC0001249088012480088C01E00B210490880EC
:100ED00010480088C01E00B20E4908800E480088E5
:100EE000C01E00B20C4908800846B0F9003009481D
:100EF000B0F900200648B0F900100448B0F900002D
:100F000000F01EFE10BD000000040240BC000020E6
:100F1000BE000020C0000020C200002010B5044622
:100F2000ACB13048D0ED000A9FED2F0A2F4801F0F8
:100F3000C9F82F4880ED000A2E48D0ED000A9FED39
:100F40002A0A2A4801F0BEF82B4880ED000A2B48F7
:100F5000D0ED000A264890ED000A294801F0B2F8C9
:100F6000284880ED000A2848D0ED000A224890ED7C
:100F7000000A234801F0A6F8244880ED000ABCB11D
:100F80002348D0ED000A1F4890ED000A214801F0E7
:100F900099F8214880ED000A2048D0ED000A1B484E
:100FA00090ED000A1E4801F08DF81E4880ED000A01
:100FB0001D48D0ED000A184890ED000A1B4801F0CA
:100FC00081F81B4880ED000A1A48D0ED000A154848
:100FD00090ED000A184801F075F8184880ED000AF5
:100FE00010BD0000AC000020000000009C37012074
:100FF000CC000020B0000020D0000020A400002081
:10100000C8370120D4000020A8000020D80000200C
:1010100008010020EC360120C4000020040100205B
:1010200018370120C800002020010020443701208B
:10103000DC0000202401002070370120E0000020A7
:10104000F0B50A4600210023002400BF3DE0012541
:1010500005FA01F3156805EA03049C4234D10568DA
:101060004F000326BE40B543056015794E00B540DC
:101070000668354305601579012D02D01579022DDA
:1010800016D185684F000326BE40B543856055796B
:101090004E00B540866835438560456801268E4020
:1010A000B5434560456896798E40B6B23543456094
:1010B000C5684F000326BE40B543C560D5794E00D4
:1010C000B540C6683543C560491C1029BFD3F0BD83
:1010D000F0B5002300244D07ED0E02FA05F3CE1003
:1010E00000F1200555F826504E07F70E0F26BE409A
:1010F000B543CF1000F1200646F82750CE1000F17E
:10110000200555F8265045EA0304CE1000F12005CD
:1011100045F82640F0BD0246002013690B400BB194
:10112000012000E0002070470A048261704781615D
:101130007047000010B504460723012221460848E5
:10114000FFF778FC0648FFF7D1FC00BF02210448F6
:10115000FFF73CFC0028F9D00148FFF733FC10BD35
:101160000020014000BFFEE710B501F0D3FD4FF4B1
:1011700080710B48FFF7D8FF4FF400710948FFF763
:10118000D3FF00F011F84FF480710548FFF7CFFF4F
:1011900000F00AF84FF480710148FFF7C5FF10BD59
:1011A0000000024000080240002001E0411CC8B2DB
:1011B0000A28FBDB704700001CB50121084601F03E
:1011C00053FC0121042001F04FFC4FF4807000908B
:1011D00001208DF8040000208DF8060003208DF812
:1011E000050001208DF8070069460A48FFF728FF2F
:1011F0004FF40070009069460748FFF721FF4FF455
:1012000080710448FFF793FF4FF400710248FFF725
:101210008EFF1CBD000002400008024010B501F026
:1012200079FD4FF480710B48FFF77EFF4FF400719A
:101230000948FFF77CFFFFF7B7FF4FF480710548BF
:10124000FFF775FFFFF7B0FF4FF480710148FFF71C
:101250006BFF10BD000002400008024070B501F0B5
:1012600045FD0024002519E04FF480711148FFF777
:101270005BFFFFF799FF4FF480710E48FFF757FFB0
:101280006006040E4FF400710B48FFF744FF08B1ED
:1012900044F00104FFF788FF681CC5B2082DE3DBAA
:1012A0004FF480710348FFF73FFF01F033FD204604
:1012B00070BD0000000002400008024070B5044606
:1012C00001F028FD00251FE04FF480711348FFF75F
:1012D0002BFF04F0800028B14FF400711048FFF795
:1012E00026FF04E04FF400710D48FFF71DFF600674
:1012F000040EFFF759FF4FF480710848FFF717FFFE
:10130000FFF752FF681CC5B2082DDDDB4FF480717A
:101310000248FFF709FFFFF747FF70BD00000240DA
:101320000008024010B501F0F5FC4FF400710C48C4
:10133000FFF7FDFE4FF480710A48FFF7F8FEFFF754
:1013400033FF4FF400710648FFF7EEFEFFF72CFF66
:101350004FF480710348FFF7E7FEFFF725FF10BD4C
:10136000000802400000024010B501F0D3FC4FF429
:1013700080710B48FFF7D8FE4FF400710948FFF762
:10138000D3FEFFF711FF4FF480710548FFF7CFFE42
:101390004FF400710348FFF7CAFEFFF705FF10BDC9
:1013A000000002400008024010B500244FF4007114
:1013B0001448FFF7BCFE01F099FCFFF7F5FE4FF46F
:1013C00080711148FFF7B3FEFFF7EEFE09E0601CE5
:1013D000C4B2FA2C05DDFFF7C7FF01F09BFC00202B
:1013E00010BD4FF400710748FFF795FE0028EED1BD
:1013F0004FF480710448FFF797FE01F08BFC012049
:10140000EEE70000000802400000024010B504466C
:101410002B4800F0C9F92B4800F040FA284890ED1D
:10142000000ADFED290A20EE200A284880ED000A94
:10143000234890ED010ADFED240A20EE200A24481B
:1014400080ED000A1E4890ED020ADFED1F0A20EE33
:10145000200A204880ED000A1A4890ED000ADFEDCE
:101460001E0A20EE200A1D4880ED000A154890ED66
:10147000010ADFED190A20EE200A194880ED000A62
:10148000104890ED020ADFED140A20EE200A1548FC
:1014900080ED000A94B1D0ED002A114890ED002AA9
:1014A0000E48D0ED001A0B4890ED001A0848D0ED18
:1014B000000A064890ED000A00F0BEFF10BD0000D3
:1014C00038380120443801200AE81C412C01002052
:1014D000300100203401002039FA8E3C2001002028
:1014E00024010020280100201CB50121022001F068
:1014F000BBFA4FF44050009001208DF8040000200A
:101500008DF8060003208DF8050001208DF80700F6
:1015100069460448FFF794FD4FF440510148FFF736
:1015200006FE1CBD0004024070B50446002513E011
:101530004FF480510A48FFF7F7FD4FF4167002F0A0
:10154000F9FE4FF480510648FFF7F1FD4FF4167095
:1015500002F0F0FE681CC5B2A542E9DB70BD0000D8
:10156000000402402DE9F0412DED0A8B04460D46A2
:1015700016461F4600EE106AB8EE400A10EE100A3A
:10158000FEF789FF41EC1A0B00EE107AB8EE400A24
:1015900010EE100AFEF77FFF41EC1C0B9FED200BB5
:1015A00053EC102BFEF796FE41EC1B0B53EC1A2B61
:1015B000FEF702FF41EC190BFEF780FF08EE100A60
:1015C000B7EE000AB4EEC08AF1EE10FA02DDB7EE13
:1015D000000A09E0B5EEC08AF1EE10FA02D29FEDE2
:1015E000120A01E0B0EE480AB0EE408AB7EE000AF7
:1015F00070EE480A00EE104AB8EEC00A60EE800AAB
:1016000000EE105AB8EEC00A40EE080ABDEEE00A3D
:1016100010EE100A00B2BDEC0A8BBDE8F0810000AC
:101620004AD8124DFB211940000000000120014959
:10163000087070479D00002010B52DED048B84B01C
:101640009FED260AB0EE408A9FED240AF0EE408A14
:101650009FED220AB0EE409A9FED200A8DED010A1F
:101660009FED1E0A8DED020A9FED1C0A8DED030A07
:10167000002416E001A800F011F99DED010A30EEFA
:10168000080AB0EE408A9DED020A30EE280AF0EE1C
:10169000408A9DED030A30EE090AB0EE409A601CC4
:1016A000C4B2C82CE6DB9FED0E0AC8EE000A0D4856
:1016B000C0ED000A9FED0A0AC8EE800AC0ED010ADB
:1016C0009FED070AC9EE000AC0ED020A0120064993
:1016D000087004B0BDEC048B10BD000000000000D9
:1016E00000004843A03601209C00002010B5FFF701
:1016F00063FD642002F01EFE00BF80216B2000F01D
:1017000002FA0028F9D0642002F014FE00BF002184
:101710006B2000F0F8F90028F9D000BF032000F09A
:10172000B0F90028FAD000BF022000F0A2F900288A
:10173000FAD000BF0021382000F0E5F90028F9D0E8
:1017400000BF00216A2000F0DEF90028F9D000BFB8
:101750000021232000F0D7F90028F9D000BF802114
:10176000372000F0D0F90028F9D0752000F063F997
:101770000446682C14D100BF01216B2000F0C3F98E
:101780000028F9D000BF00216C2000F0BCF900282F
:10179000F9D000BF322000F099F90028FAD001E01A
:1017A000012010BD0020FCE77FB5044602AA0621F7
:1017B0003B2000F00FF90546012D1AD19DF80900D4
:1017C0009DF8081040EA012000B2ADF800009DF835
:1017D0000B009DF80A1040EA012000B2ADF80200AB
:1017E0009DF80D009DF80C1040EA012000B2ADF804
:1017F0000400BDF9000000EE100AB8EEC00ADFEDEB
:10180000230A20EE200A84ED000ABDF9020000EE52
:10181000100AB8EEC00ADFED1D0A20EE200A84EDA2
:10182000010ABDF9040000EE100AB8EEC00ADFEDAF
:10183000170A20EE200A84ED020A1548007818B332
:10184000144890ED000A1448D0ED000A94ED001AF7
:1018500000EE810A84ED000A0E4890ED010A0E4860
:10186000D0ED010A94ED011A00EE810A84ED010A1F
:10187000084890ED020A0848D0ED020A94ED021AD9
:1018800000EE810A84ED020A7FBD0000D5FF7F399A
:101890009D00002080630008746300087FB5044643
:1018A00002AA0621432000F095F80546012D1AD121
:1018B0009DF809009DF8081040EA012000B2ADF83B
:1018C00000009DF80B009DF80A1040EA012000B2CC
:1018D000ADF802009DF80D009DF80C1040EA0120C3
:1018E00000B2ADF804003748007850B3BDF90010DD
:1018F000354AB2F900001E23FA22FFF733FEADF895
:101900000000BDF90210304AB2F902001E23FA228B
:10191000FFF728FEADF80200BDF904102A4AB2F91B
:1019200004001E23FA22FFF71DFEADF80400BDF8E7
:10193000000025490880BDF802004880BDF8040079
:101940008880BDF9000000EE100AB8EEC00ADFED95
:101950001F0A20EE200A84ED000ABDF9020000EE05
:10196000100AB8EEC00ADFED190A20EE200A84ED55
:10197000010ABDF9040000EE100AB8EEC00ADFED5E
:10198000130A20EE200A84ED020A0E480078C0B146
:1019900094ED000A0E48D0ED000A30EE600A84EDA6
:1019A000000A94ED010AD0ED010A30EE600A84EDE0
:1019B000010A94ED020AD0ED020A30EE600A84EDCD
:1019C000020A7FBD9C0000209E000020F1FF793DAF
:1019D000A03601202DE9F04107460D461646FFF7D7
:1019E000A1FCD020FFF76AFCFFF7DEFC80463846FA
:1019F000FFF764FCFFF7D8FC8046FFF793FCD1208B
:101A0000FFF75CFCFFF7D0FC804600240CE0FFF7FA
:101A100025FC3055681EA04202D0FFF7A5FB01E06F
:101A2000FFF7FCFB601CC4B2AC42F0DBFFF79CFC90
:101A30004046BDE8F08170B50446FFF773FCD02046
:101A4000FFF73CFCFFF7B0FC2046FFF737FCFFF741
:101A5000ABFCFFF767FCD120FFF730FCFFF7A4FCDD
:101A6000FFF7FCFB0546FFF7D9FBFFF77DFC284697
:101A700070BD10B50446E006010E1C2000F043F8CE
:101A800010BD10B50446E006010E1B2000F03BF827
:101A900010BD70B504460025BC2C01DB012510E00B
:101AA000622C01DB02250CE02A2C01DB032508E077
:101AB000142C01DB042504E00A2C01DB052500E0E1
:101AC000062529461A2000F01EF870BD70B50446A0
:101AD000B4F57A7F01DD4FF47A74042C00DA042423
:101AE0004FF47A7090FBF4F0401EC5B229461920DD
:101AF00000F009F80546264604EBD671C1F34F0005
:101B0000FFF7C7FF70BD70B505460C46FFF70AFC2E
:101B1000D020FFF7D3FBFFF747FC06462846FFF728
:101B2000CDFBFFF741FC06462046FFF7C7FBFFF75A
:101B30003BFC0646FFF718FC304670BD00BFFEE7D1
:101B40002DE9F04104460F4615461E46B4F5FA6FDE
:101B500002DD4FF4FA6006E0B4F57A7F02DA4FF462
:101B60007A7000E020460446B7F5FA6F02DD4FF4C4
:101B7000FA6006E0B7F57A7F02DA4FF47A7000E097
:101B800038460746B5F5FA6F02DD4FF4FA6006E015
:101B9000B5F57A7F02DA4FF47A7000E02846054600
:101BA000B6F5FA6F02DD4FF4FA6006E0B6F57A7F1B
:101BB00002DA4FF47A7000E03046064621464FF0D4
:101BC000804001F0E5FC39464FF0804001F0E2FC36
:101BD00029464FF0804001F0DFFC31464FF0804055
:101BE00001F0DCFCBDE8F081704700001CB511A1DC
:101BF00003C9CDE90001102001F0A2F805226946D1
:101C0000302001F093F905226946102001F058F9BF
:101C1000002406E01DF80400A52800D003E0601CA5
:101C2000C4B2052CF6DB00BF052C01D001201CBD81
:101C30000020FCE7A5A5A5A5A50000001CB5012175
:101C4000084600F011FF0121042000F00DFF1020D4
:101C5000009001208DF8040000208DF8060003207C
:101C60008DF8050001208DF8070069461948FFF737
:101C7000E7F91020009001208DF8040000208DF875
:101C8000060003208DF8050001208DF80700694645
:101C90001148FFF7D5F92020009000208DF80400AE
:101CA00002208DF8070003208DF8050069460A48D8
:101CB000FFF7C6F910210748FFF739FA01F076F867
:101CC00010210548FFF730FA10210248FFF72FFADC
:101CD0001CBD0000000002400008024010B51021A9
:101CE0001248FFF721FA052211492A2001F01EF9B6
:101CF0000121212001F03AF90121222001F036F9D9
:101D00002821252001F032F92021312001F02EF97F
:101D10000F21262001F02AF90F21202001F026F9B9
:101D200010210248FFF703FA10BD0000000802402E
:101D30006D63000870B50446102001F001F807201B
:101D400001F0DEF805462946272001F00FF905F0DD
:101D5000400050B120222146612001F0B1F8FF215E
:101D6000E22001F003F9002070BD0120FCE7000033
:101D700010B510211448FFF7D7F905221349302078
:101D800001F0D4F8052212492A2001F0CFF80121F0
:101D9000212001F0EBF80121222001F0E7F81A21BF
:101DA000242001F0E3F82821252001F0DFF80F219D
:101DB000262001F0DBF80E21202001F0D7F81021B9
:101DC0000148FFF7B4F910BD00080240686300083D
:101DD0006D63000870B50546102000F0B1FF1021BA
:101DE0001548FFF7A1F920222946A02001F09EF80E
:101DF00010211148FFF79BF900BF20210E48FFF783
:101E00008AF90028F9D1072001F07AF80446214622
:101E1000272001F0ABF804F0100028B1FF21E120E9
:101E200001F0A4F8E12070BD04F0200008B12020EA
:101E3000F9E7FF20F7E700000008024070B5002135
:101E400000230F22C4781CB3174C246804F4E06408
:101E5000C4F5E064C4F30721C1F10404E3B20A410C
:101E600044789C40E1B28478144021430C07210E51
:101E70000E4C05786155047804F01F050124AC4030
:101E800005786D11AD0005F1E025C5F8004109E0C8
:101E9000047804F01F050124AC40054D0678761146
:101EA00045F8264070BD00000CED00E000E400E0C5
:101EB00080E100E002490143024A116070470000DE
:101EC0000000FA050CED00E030B503460C46002298
:101ED0005EE0995C30480078052852D2DFE800F0D7
:101EE000030B1C344200FE2904D101202A4D287026
:101EF0002A48017049E00A290AD10220264D28709B
:101F0000264841700020264D2870264D287002E09A
:101F10000020214D287038E02048801C204D2D786D
:101F200020F815101E480078401C1D4D28701D48D3
:101F3000007848401B4D2870194800780A2802D1C3
:101F40000320154D287020E016480078884205D1FE
:101F5000124881750420104D287002E000200E4DBB
:101F6000287012E0552908D10C48C17500200A4D8F
:101F700028700C4D2870012030BD0020064D2870BF
:101F800003E00020044D287000BF00BF501C82B247
:101F9000A2429EDB0020EFE7B4000020BA36012009
:101FA000B6000020B500002010B50E2209490A48ED
:101FB00000F065FE58B10E210648FFF785FF20B1FD
:101FC000064802F0E9FF012010BD0020FCE70020D8
:101FD000FAE70000AC36012094360120BA36012021
:101FE00000B58BB00121084600F04EFD01210846E6
:101FF00000F03AFD0F20099002208DF82800002003
:102000008DF82A0003208DF8290001208DF82B007F
:1020100009A92B48FFF714F8012200212848FFF7EF
:1020200057F8012211462648FFF752F801220221F3
:102030002348FFF74DF8012203212148FFF748F814
:102040004FF0804001F077F90020ADF82000ADF8A6
:102050001A0040F2CF7007906320ADF818000020FE
:102060008DF8220006A94FF0804001F099FA602017
:10207000ADF804000020ADF810000120ADF8060016
:102080000020039001A94FF0804001F05BF901A905
:102090004FF0804001F094F901A94FF0804001F029
:1020A000E1F901A94FF0804001F02CFA01A801F0FC
:1020B00065FA0121880701F018F90BB000BD000096
:1020C00000000240B0EE402A32EE600AB0EE401A44
:1020D00090ED000A20EE010AB0EE403A3C49098832
:1020E000FA293BDB90ED070AB4EEE00AF1EE10FAB4
:1020F00008D390ED070AB1EE400AB4EEE00AF1EE23
:1021000010FA03DD002180F828102BE0012180F86F
:10211000281090ED060A30EE010A80ED060A90EDD7
:10212000060AD0ED083AB4EEE30AF1EE10FA03DD48
:1021300090ED080A80ED060A90ED060AD0ED083A07
:10214000F1EE633AB4EEE30AF1EE10FA0AD290ED42
:10215000080AB1EE400A80ED060A03E09FED1D0A71
:1021600080ED060AD0ED013A90F8281000EE101A22
:10217000B8EE400A23EE800AD0ED063A60EE232A3C
:1021800090ED020AD0ED033A71EE633A20EE230A95
:10219000F0EE401A90ED040AD0ED053AB7EE004A91
:1021A00074EE633A20EE230AD0ED053A01EEA30A5D
:1021B000F0EE401AC0ED041A33EE220A30EE210A86
:1021C00080ED090A80ED031A90ED090A70470000BE
:1021D000F800002000000000B1EE040A874880EDFE
:1021E000000A9FED870A80ED010AB0EE000A80ED3B
:1021F000020A9FED830A80ED030A9FED810A80EDBC
:10220000040A9FED800A80ED050A9FED7D0A80EDAE
:10221000060A9FED7B0A80ED090AB3EE0E0A80EDF7
:10222000070A9FED790A80ED080A0020734981F8BA
:102230002800B1EE040A754880ED000A9FED700A8F
:1022400080ED010AB0EE000A80ED020A9FED6C0AF3
:1022500080ED030A9FED6A0A80ED040A9FED690A8A
:1022600080ED050A9FED660A80ED060A9FED640A7F
:1022700080ED090AB3EE0E0A80ED070A9FED620AAF
:1022800080ED080A0020614981F828009FED600A6E
:10229000604880ED000A9FED600A80ED010AB2EE11
:1022A000000A80ED020A9FED560A80ED030A9FEDB9
:1022B000540A5A4880ED040A9FED520A80ED050A3F
:1022C0009FED4F0A534880ED060A9FED4D0A80EDC1
:1022D000090A9FED530A80ED070A9FED4B0A80ED36
:1022E000080A00204B4981F828009FED490A4B4815
:1022F00080ED000A9FED480A80ED010AB2EE000A67
:1023000080ED020A9FED3E0A80ED030A9FED3C0A34
:1023100080ED040A9FED3B0A80ED050A9FED380A27
:1023200080ED060A9FED360A80ED090A9FED3C0A12
:1023300080ED070A9FED340A80ED080A0020374936
:1023400081F828009FED370A374880ED000A9FED9D
:102350002C0A80ED010A9FED2A0A80ED020A9FED0A
:10236000280A80ED030A9FED260A80ED040A9FEDFE
:10237000250A80ED050A9FED220A80ED060A9FEDF1
:10238000200A80ED090A9FED260A80ED070AB0EECB
:10239000040A80ED080A0020234981F828009FEDF7
:1023A000230A234880ED000A9FED150A80ED010AFB
:1023B0009FED130A80ED020A9FED110A80ED030ADA
:1023C0009FED0F0A80ED040A9FED0E0A80ED050ACD
:1023D0009FED0B0A80ED060A9FED090A80ED090AC0
:1023E0009FED140A80ED070AB2EE040A80ED080A98
:1023F00000200F4981F8280070470000EC360120CA
:1024000000000000CDCCCC3E0000FA43183701207C
:1024100048E13A3F44370120A69B443C70370120F5
:1024200000009643CDCCCC3C9C3701204260E53C7B
:10243000C83701200000484200B52DED108B93B045
:10244000B0EE40BAB0EE60AAF0EE41AAF0EE618ABA
:10245000B0EE429AF0EE629AFE4890ED000A20EE4D
:10246000000A8DED120A90ED000AFB48D0ED000A3B
:1024700020EE200A8DED110AF64890ED000AF7488B
:10248000D0ED000A20EE200A8DED100AF24890ED02
:10249000000A20EE000AF0EE40EA90ED000AF04853
:1024A000D0ED000A20EE200A8DED0F0AEB4890EDEA
:1024B000000A20EE000AB0EE40FA90ED000AE8486B
:1024C000D0ED000A20EE200A8DED0E0A90ED000AF4
:1024D00020EE000A8DED0D0AE24890ED000A20EE94
:1024E000000A8DED0C0AE04890ED000A20EE000A8B
:1024F0008DED0B0ADD4890ED000A20EE000A8DED0F
:102500000A0ADB4890ED000A20EE000AF0EE40FADD
:10251000D54890ED000AD548D0ED000A20EE200AFB
:102520008DED090ACF4890ED000AD148D0ED000AA0
:1025300020EE200A8DED080ACB4890ED000AB1EE9E
:10254000400A20EE280AC948D0ED000A00EEC90A68
:10255000C748D0ED000A00EEE90AC248D0ED000AF3
:102560009FEDC41A40EE010AC0ED000A90ED000A8A
:1025700020EE280ABD48D0ED000A00EEA90ABC48AA
:10258000D0ED000A00EEC90AB748D0ED000A9FED71
:10259000B91A40EE010AC0ED000AB24890ED000AF7
:1025A00020EE090AB048D0ED000A00EEE90AB04872
:1025B000D0ED000A00EEA80AAC48D0ED000A9FED6D
:1025C000AD1A40EE010AC0ED000AA64890ED000ADF
:1025D00020EE290AA448D0ED000A00EE890AA3489B
:1025E000D0ED000A00EEE80AA148D0ED000A9FED08
:1025F000A11A40EE010AC0ED000ADDED0C0A9DEDC6
:102600000B1A30EE811ADDED0A0A71EE200A70EE27
:10261000AF0AB0EE600A01F0C9FEB0EE408A914800
:1026200090ED000A20EE080A80ED000A8E4890ED39
:10263000000A20EE080A80ED000A8C4890ED000A9E
:1026400020EE080A80ED000A894890ED000A20EE8D
:10265000080A80ED000A2BEE0A0A20EE2A0AB5EEDF
:10266000C00AF1EE10FA03D113B0BDEC108B00BD1F
:102670006BEE0B0A4AEE0A0A4AEEAA0AB0EE600AAC
:1026800001F094FEB0EE408A2BEE080AB0EE40BA9C
:102690002AEE080AB0EE40AA2AEE880AF0EE40AA16
:1026A0009DED0F0ADDED100A30EE600AF0EE000A33
:1026B00020EE20DA9DED110ADDED0E0A30EE200A43
:1026C000F0EE000A60EE20DA9DED120A30EE6E0A9E
:1026D00070EE4F0A9DED0D0A30EE80EA2AEE0E0AEA
:1026E000F0EE40BA4AEEEDBA2AEE8D0AB0EE40CADC
:1026F0000BEE4ECA2BEE2D0AF0EE40CA4AEE4DCA42
:102700005D4890ED000ADFED5D0A0BEEA00A80ED5A
:10271000000A5B4890ED000ADFED580A0CEE200A33
:1027200080ED000A574890ED000ADFED540A0CEEE8
:10273000A00A80ED000ADFED540AB0EE680A00EE50
:10274000AB0A4D48D0ED000A30EE200AF0EE408A88
:10275000DFED4D0AB0EE490A00EE8C0A4848D0ED94
:10276000000A30EE200AB0EE409ADFED470AB0EEE4
:10277000690A00EEAC0A4348D0ED000A30EE200AA8
:10278000F0EE409A344890ED000AB1EE400A20EE97
:10279000280A3248D0ED000A00EEC90A3048D0EDD0
:1027A000000A00EEE90A2B48D0ED000A9FED311A2D
:1027B00040EE010AC0ED000A90ED000A20EE280A62
:1027C0002648D0ED000A00EEA90A2548D0ED000AFF
:1027D00000EEC90A2048D0ED000A9FED261A40EE0F
:1027E000010AC0ED000A1B4890ED000A20EE090A1C
:1027F0001948D0ED000A00EEE90A1948D0ED000AA8
:1028000000EEA80A1548D0ED000A9FED1A1A40EE16
:10281000010AC0ED000A0F4890ED000A20EE290AD7
:102820000D48D0ED000A00EE890A0C48D0ED000AF0
:1028300000EEE80A0A48D0ED000A9FED0E1A40EEBD
:10284000010AC0ED000ADDED120A70EEAE0A30EEAC
:102850008F1A1BE010010020140100201801002035
:102860001C01002044010020480100204C010020F0
:10287000500100206F12033B380100200AD7A33B10
:102880003C01002040010020CDCC0C40DDED0D0AC4
:1028900071EE200AB0EE600A01F088FDB0EE408AC9
:1028A000684890ED000A20EE080A80ED000A6648AC
:1028B00090ED000A20EE080A80ED000A634890EDD2
:1028C000000A20EE080A80ED000A614890ED000A37
:1028D00020EE080A80ED000AB8EE000A2EEE800A0B
:1028E000F0EE000A00EECF0AF7EE000A30EE200A02
:1028F00010EE101A0846FDF7CEFDCDE902019DED60
:102900000E0AF0EE000A60EE200A9DED110AB0EE0C
:10291000001A41EE000A10EE901A0846FDF7BBFDC2
:10292000CDE900019DED021B9DED000B01F034FB94
:102930008DED040B9FED470B53EC102B9DED040B1D
:1029400051EC100BFDF7C6FCCDE906019DED060B21
:1029500051EC100BFDF7B2FD404908609DED0F0AE8
:10296000F8EE000A60EE200A9DED100AB0EE001AA3
:1029700041EE000A10EE901A0846FDF78CFDCDE9F5
:1029800002019DED020B00F0EBFF8DED040B9FEDBE
:10299000310B53EC102B9DED040B51EC100BFDF79C
:1029A00099FCCDE906019DED060B51EC100BFDF7EE
:1029B00085FD2B4908609DED0A0AF8EE000A20EE1D
:1029C000200AF0EE000A00EEEF0AF7EE000A30EE01
:1029D000200A10EE101A0846FDF75DFDCDE9020150
:1029E0009DED090AF0EE000A60EE200A9DED080A4E
:1029F000B0EE001A41EE000A10EE901A0846FDF7FC
:102A00004AFDCDE900019DED021B9DED000B01F09B
:102A1000C3FA8DED040B9FED0F0B53EC102B9DEDC6
:102A2000040B51EC100BFDF755FCCDE906019DEDB3
:102A3000060B51EC100BFDF741FD0A49086000BF81
:102A400012E60000100100201401002018010020EF
:102A50001C0100200000006066A64C400801002018
:102A6000040100200C01002029B1064A126802432B
:102A7000044B1A6004E0034A12688243014B1A6057
:102A8000704700003038024029B1064A12680243FC
:102A9000044B1A6004E0034A12688243014B1A6037
:102AA000704700004038024029B1064A12680243CC
:102AB000044B1A6004E0034A12688243014B1A6017
:102AC000704700004438024029B1064A12680243A8
:102AD000044B1A6004E0034A12688243014B1A60F7
:102AE0007047000024380240F0B500210022002485
:102AF000022500260223324F3F6807F00C0121B166
:102B0000042905D0082937D105E02E4F076036E0AB
:102B10002D4F076033E02A4F3F1F3F68C7F38056B1
:102B2000274F3F1F3F6807F03F036EB1264FB7FBAB
:102B3000F3F7DFF88CC0ACF1040CDCF800C0CCF388
:102B4000881C07FB0CF40CE01E4FB7FBF3F7DFF813
:102B500070C0ACF1040CDCF800C0CCF3881C07FB9F
:102B60000CF4174F3F1F3F68C7F301477F1C7D00E0
:102B7000B4FBF5F7076002E0124F076000BF00BF2B
:102B80000F4F3F6807F0F0010909104F7A5C0768A2
:102B9000D74047600A4F3F6807F4E051890A0B4F5E
:102BA0007A5C4768D7408760054F3F6807F460410B
:102BB000490B064F7A5C4768D740C760F0BD0000FC
:102BC000083802400024F40000127A0014000020AB
:102BD00010B5FFF783F81E48FFF7ACF81D490870E1
:102BE0000846007890BB1A48007800EE100AB8EE4C
:102BF000400ADFED190A30EE600A184880ED000A3D
:102C00001348407800EE100AB8EE400ADFED120AD1
:102C100030EE600A124880ED000A0D48807800EE20
:102C2000100AB8EE400ADFED0C0A30EE600A0D48DB
:102C300080ED000A064800790549C97840EA01207C
:102C400009490880024840790849088010BD000001
:102C5000F4370120E800002000004842F000002086
:102C6000EC000020F4000020F8000020FA00002012
:102C7000016082800023C38003814381704770B567
:102C800003465889904201DA002070BD00200DE013
:102C9000DD881C68645D0C54DC88641C9D8894FB92
:102CA000F5F605FB1644DC80441CA0B29042EFDB35
:102CB0005889801A58811046E7E710B502465089B6
:102CC0009388984201DB002010BD13891068C1541D
:102CD0001089401C938890FBF3F403FB14001081CF
:102CE0005089401C50810120EEE700001CB54FF4D4
:102CF0000070009000208DF8040001208DF807007E
:102D000003208DF8050069460148FEF799F91CBDBE
:102D1000000802401CB54FF40070009001208DF8AF
:102D200004008DF8060000208DF8070003208DF8C0
:102D3000050069460148FEF783F91CBD0008024002
:102D4000054909884FF6C7721140034A11801146A0
:102D500009880143118070470030014010B50446D6
:102D600000BF02210A4800F07FF80028F9D0214670
:102D7000074800F085F800BF0121054800F074F80D
:102D80000028F9D0024800F078F8C0B210BD000069
:102D90000030014021B1028842F04002028004E08C
:102DA00002884FF6BF731A400280704700B585B0A5
:102DB00000F030F800211648FFF7ECFF012108036E
:102DC000FFF772FE0020ADF800004FF48270ADF8FE
:102DD00002000020ADF80400ADF80600ADF80800D0
:102DE0004FF40070ADF80A003820ADF80C00002058
:102DF000ADF80E000720ADF810006946044800F059
:102E000041F801210248FFF7C5FF05B000BD0000F1
:102E1000003001401CB501210846FFF725FEE020E7
:102E2000009002208DF8040000208DF80600032099
:102E30008DF8050001208DF8070069460948FEF766
:102E4000FFF8052211460748FEF742F90522062140
:102E50000448FEF73DF9052207210248FEF738F93C
:102E60001CBD0000000002400246002013890B40F8
:102E70000BB1012000E000207047014688897047AF
:102E80008181704710B50022028802F441520B88FC
:102E90004C8823438C882343CC8823430C892343C9
:102EA0004C8923438C892343CC8923431A430280D2
:102EB000838B4FF2FF74234083830B8A038210BD00
:102EC0002DE9F04107460D46164610210B48FEF746
:102ED0002BF93846FFF742FF8046002405E0FF202B
:102EE000FFF73CFF2855601CC4B2B442F7DB102149
:102EF0000248FEF71CF94046BDE8F08100000240A0
:102F000070B5044610210848FEF70EF92046FFF779
:102F100025FFFF20FFF722FF054610210248FEF79C
:102F200006F9284670BD0000000002402DE9F0417E
:102F300007460C46154610210B48FEF7F5F83846B3
:102F4000FFF70CFF8046002605E014F8010BFFF7A1
:102F500005FF701CC6B2AE42F7DB10210248FEF737
:102F6000E6F84046BDE8F0810000024070B5054635
:102F70000C4610210748FEF7D7F82846FFF7EEFE6B
:102F800006462046FFF7EAFE10210248FEF7CFF87A
:102F9000304670BD0000024010B5FEF7E9FE092082
:102FA000FEF7C8F800EE100AB8EE400A2D4880ED92
:102FB000000A90ED000ADFED2C0A80EE201A9FED4A
:102FC0002B0A21EE000ADFED2A0A20EE200ADFEDAF
:102FD000290A80EE201A80ED001A90ED000ADFED3C
:102FE000260AB4EEE00AF1EE10FA14DD90ED000AC4
:102FF000DFED210A30EE600ADFED200A20EE200A24
:10300000DFED1F0A80EE201ABCEEC10A10EE100A96
:103010001C49087002E000201A490870194800781D
:1030200019490870194890ED000ABCEEC00A10EE6C
:10303000100A4870164890ED000ABCEEC00A10EE67
:10304000100A8870134890ED000ABCEEC00A10EE1A
:10305000100AC8700A2001F079F90B48FEF7BAFE91
:1030600010BD0000FC0000200000804533335340B9
:103070000000FC4200009642666666400000C842BE
:103080009899193F000100201538012008010020FF
:10309000040100200C01002004E0FFF77DFF022066
:1030A00002F0B8F9F9E700000CB50020019000909B
:1030B0003348006840F480303149086000BF304830
:1030C000006800F4003000900198401C01900098C6
:1030D00018B90198B0F5A04FF1D12948006800F463
:1030E000003010B10120009001E000200090009815
:1030F000012844D122484030006840F080502049E7
:10310000403108601F48006840F440401D49086095
:103110001B48083000681A490831086008460068F2
:1031200008600846006840F4805008601648091F8F
:103130000860081F006840F08070091F086000BF29
:103140000F48006800F000700028F9D040F20270CB
:103150000E4908600A480830006820F0030008495A
:10316000083108600846006840F00200086000BFAF
:1031700003480830006800F00C000828F8D10CBDA6
:10318000003802400070004004194004003C024036
:10319000042808D14FF0E021096941F004014FF003
:1031A000E022116107E04FF0E021096921F00401FC
:1031B0004FF0E0221161704710B502F07BFE01284C
:1031C00001D002F03DFB10BD70B504460420FFF7AE
:1031D000DFFF0A48046025464FF47A7045434FF0FC
:1031E000E020006940F002004FF0E021086108464D
:1031F0004561006940F00100086170BD24000020B5
:1032000010B51548006840F4700013490860134871
:10321000006840F001001149086000200F490831A2
:1032200008600E4800680E4908400C4908600D48C7
:10323000091D0860081F006820F48020091F08602D
:10324000002006490C310860FFF72EFF4FF00060A8
:1032500001498039086010BD88ED00E00038024067
:10326000FFFFF6FE1030002410B50121880700F0A2
:1032700048F838B10121880700F034F8FEF794FED1
:1032800000B100BF10BD00001FB501210220FFF7F3
:10329000FBFB42F20F70ADF80400C7200290002043
:1032A000ADF80C00ADF8060001A90D4800F078F962
:1032B000012211460A4800F035F80121084800F0C3
:1032C00014F81D208DF8000001208DF801008DF804
:1032D00002008DF803006846FEF7B0FD1FBD000038
:1032E00000040040CA430282704721B1028842F0C4
:1032F0000102028004E002884FF6FE731A40028049
:10330000704730B50246002000230024158A05EAE4
:103310000103958905EA010413B10CB1012000E015
:10332000002030BD1AB183890B43838102E0838979
:103330008B438381704701894FF6F87211400181F8
:103340007047000070B5002400220023058C4FF662
:10335000FE7635400584028C8388048B4FF68F758A
:103360002C40B51E2C400D882C43751E2A408D899B
:103370002A434D882A43104DA84202D00F4DA8423F
:1033800013D14FF6F7752A40CD892A434FF6FB75C6
:103390002A408D882A434FF6FF652B404FF6FF5594
:1033A0002B400D8A2B434D8A2B43838004838D68E9
:1033B0004563028470BD000000000140000401402C
:1033C00070B5002400220023058C4FF6EF763540BF
:1033D0000584028C8388048B48F6FF752C404FF6D9
:1033E000FF452C400D884FF6FF7606EA05252C4355
:1033F0004FF6DF752A408D8906EA05152A434D8868
:1034000006EA05152A43154DA84202D0144DA842DC
:103410001DD14FF67F752A40CD894FF6FF7606EA1B
:1034200005152A434FF6BF752A408D8806EA051513
:103430002A434FF6FF352B404FF2FF752B400D8A84
:1034400006EA85052B434D8A06EA85052B438380D2
:1034500004838D688563028470BD00000000014014
:103460000004014070B5002400220023058C4FF6B3
:10347000FF6635400584028C8388848B4FF68F75F8
:103480002C404FF6FC752C400D882C434FF6FF5511
:103490002A408D894FF6FF7606EA05252A434D8896
:1034A00006EA05252A43154DA84202D0144DA8422C
:1034B0001DD14FF2FF752A40CD894FF6FF7606EAFF
:1034C00005252A434FF6FF352A408D8806EA052553
:1034D0002A434EF6FF752B404DF6FF752B400D8AA3
:1034E00006EA05152B434D8A06EA05152B43838012
:1034F00084838D68C563028470BD000000000140B4
:103500000004014070B5002200230024058C4EF613
:10351000FF7635400584038C8488828B48F6FF75DE
:103520002A404FF6FF452A400D884FF6FF7606EAFF
:1035300005252A434DF6FF752B408D8906EA053592
:103540002B434D8806EA05352B430A4DA84202D08D
:10355000094DA84208D14BF6FF752C400D8A4FF655
:10356000FF7606EA85152C43848082838D68056486
:10357000038470BD0000014000040140002101806F
:103580004180818081608181C18101824182704757
:103590004163704781637047C1637047016470473E
:1035A00000220288184B98420ED0184B98420BD03C
:1035B000B0F1804F08D0164B984205D0154B984279
:1035C00002D0154B984204D14FF68F731A404B88A6
:1035D0001A43124B984207D0114B984204D04FF631
:1035E000FF431A400B891A4302804B68C3620B8861
:1035F0000385054B984202D0044B984201D18B7A47
:1036000003860123838270470000014000040140CB
:103610000004004000080040000C00400010004082
:103620000014004010B586B0044601210846FFF79B
:103630001BFA01211020FFF737FA0722092116484B
:10364000FDF746FD4FF40070049003208DF815003F
:1036500002208DF8140000208DF8160001208DF84E
:10366000170004A90C48FDF7EBFC00940020ADF80E
:103670000400ADF80600ADF80800ADF80C00082015
:10368000ADF80A006946054800F0DEF8012103485C
:1036900000F07EF806B010BD0000024000100140AE
:1036A00010B540F22551074800F07EF8012807D1F7
:1036B000044800F033F9C4B221460348FFF7FDFA8D
:1036C00010BD0000001401409436012000B587B001
:1036D00001210420FFF7C8F901212020FFF7E4F9B8
:1036E000082206212648FDF7F3FC0822072124487A
:1036F000FDF7EEFCC020059002208DF818008DF833
:10370000190000208DF81A0001208DF81B0005A972
:103710001B48FDF795FC4FF4E13001900020ADF817
:103720000800ADF80A00ADF80C00ADF810000C2050
:10373000ADF80E0001A9134800F086F801211148E8
:1037400000F026F847208DF8000004208DF80100D5
:1037500000208DF8020001208DF803006846FEF776
:103760006DFB012240F22551064800F047F84FF466
:10377000006205490548FFF77BFA07B000BD00006D
:103780000008024000140140942E012094360120CC
:1037900021B1828942F40052828104E082894DF68F
:1037A000FF731A408281704770B5024600240023DF
:1037B0000025002040F66A16B14200D100BFC1F3D7
:1037C000421501F01F03012606FA03F3012D02D171
:1037D0009689334006E0022D02D1168A334001E07B
:1037E000968A33400C12012606FA04F416883440F7
:1037F00013B10CB1012000E0002070BDF0B503460C
:10380000002400260025002040F66A17B94200D1A6
:1038100000BF1846C1F3421401F01F06012707FA42
:1038200006F5012C01D10C3004E0022C01D110303E
:1038300000E014301AB107682F43076002E0076800
:10384000AF430760F0BD00002DE9FF4705460E4677
:103850000024A14600BFA046B08900B100BF2C8A59
:1038600024F44054F08804432C82AC8941F20C606B
:103870008443B08831890843718908430443AC818B
:10388000AC8A24F44074B0890443AC826846FFF7E4
:103890002BF92048854202D01F48854202D1DDF82D
:1038A0000C9001E0DDF80890A88900F4004040B1D8
:1038B00009EBC90000EB091031684900B0FBF1F7D2
:1038C00007E009EBC90000EB091031688900B0FB83
:1038D000F1F76420B7FBF0F004012009642101FB3B
:1038E0001078A88900F4004040B1322000EBC800F5
:1038F000B0FBF1F000F00700044308E0322000EBD9
:1039000008106421B0FBF1F000F00F0004432C819B
:10391000BDE8FF870010014000140140014688887F
:10392000C0F30800704700BFFEE703B401984100F0
:10393000009850EAC12018BF04204A0D18BF40F07B
:10394000010040F2FF72B2EB515F08BF40F002008D
:10395000012808BF052002B07047000000000000E9
:1039600070B5C1482DED020B2DED0E8B82B0119D6F
:1039700025F000449FEDBEDB9FEDBFEB84423EDBB4
:10398000A4F140511098A1F17F6108430FD0BC48C9
:10399000844202DC28D1109830B39DED100B02B0A8
:1039A000BDEC0E8B02B0BDE8704000F071BC9DED27
:1039B000100B53EC1D2B51EC100BFCF78BFC9DED09
:1039C000100B41EC180B53EC1E2B51EC100BFCF7B9
:1039D00081FC53EC182BFCF721FE41EC100B02B0DC
:1039E000BDEC0E8B02B070BD012000F095FC02B062
:1039F000BDEC0E8B02B0BDE8704000F05DBCA1488C
:103A00009FEDA18B844256DA9DED100BB4F1795FE6
:103A10000ADA51EC100BFFF788FF042808BF00F00A
:103A20005BFC9DED100BDAE753EC102B51EC100B07
:103A3000FCF750FC41EC190B95480621B0EE490A01
:103A4000F0EE690A784400F0A7FB53EC192B51EC17
:103A5000100BFCF73FFC41EC1A0B8E48B0EE490A04
:103A6000F0EE690A0421784400F096FB53EC192B20
:103A700051EC100BFCF72EFC53EC182BFCF7CEFD91
:103A800041EC100B51EC1A0B53EC102BFCF794FC8F
:103A9000CDE900019DED000B53EC102B9DED100BBB
:103AA00051EC100BFCF716FC9DED101B53EC112B89
:103AB000FCF7B4FDD2E09DED100B51EC100B00F0C3
:103AC00069FC53EC182BFCF74DFE9FED730BCDE911
:103AD000000153EC102B9DED000B51EC100BFCF78B
:103AE000F9FB41EC190B6E480621B0EE490AF0EEE5
:103AF000690A784400F050FB53EC192B51EC100B81
:103B0000FCF7E8FB41EC1B0B6648B0EE490AF0EE0F
:103B1000690A0421784400F03FFB53EC192B51EC67
:103B2000100BFCF7D7FB53EC182BFCF777FD41EC9F
:103B30001C0B51EC190B01F0F7F941EC180B5A482A
:103B40009FED5BABA04222DC53EC1C2B51EC1B0B1A
:103B5000FCF732FCCDE900019DED000B51EC180B98
:103B600053EC102BFCF7B6FB53EC182BFCF756FD6F
:103B700053EC1A2BFCF7AEFB53EC1D2BFCF7EFFDBF
:103B800053EC1E2BFCF7EEFD41EC100B5FE08DEDCE
:103B9000008B002000909DED000B51EC180B53ECB6
:103BA000102BFCF73BFD9DED000B41EC1E0B53EC85
:103BB000102B51EC100BFCF78DFB53EC192BFCF781
:103BC000D1FD53EC1E2BFCF7F7FB41EC190B53EC2A
:103BD0001C2B51EC1B0BFCF7EFFB41EC1B0B53ECCC
:103BE0001A2B51EC190BFCF775FB53EC1D2BFCF752
:103BF000B9FD41EC190B53EC1A2B51EC180BFCF7E7
:103C000069FB53EC1B2BFCF765FB53EC192BFCF702
:103C1000A6FD9DED000B41EC180B53EC1A2B51EC5B
:103C2000100BFCF757FB9FED249B53EC192BFCF773
:103C300099FD41EC100B51EC180B53EC102BFCF7D9
:103C40008EFD53EC192BFCF78DFD41EC100B002D74
:103C50003FF7C5AE51EC100B81F0004141EC100B69
:103C6000BDE60000000000000000F03F0000000082
:103C7000075C143326A6913C182D4454FB21F93FD0
:103C80000000F07F0000E03F000000000000F03F77
:103C90004829000056290000000000000000E03F15
:103CA0009A280000A82800003333EF3F00000000EE
:103CB0000000000000000040182D4454FB21E93FA3
:103CC00070B59B482DED020B2DED068B079D25F061
:103CD0000044A04218DC9748844202DC0AD10698CE
:103CE00040B19DED060BBDEC068B02B0BDE8704007
:103CF00000F0CEBA002DCCBF9FED8F0B9FED900B47
:103D0000BDEC068B02B070BD8F48A04215DD8F4818
:103D1000A042D8BF4FF0FF3458DD9DED060B51ECAB
:103D2000100BFFF702FE042808BF00F0D5FA9DED46
:103D3000060BBDEC068B02B070BD9DED060B51EC81
:103D4000100B00F027FBCDE9060181489FED828B27
:103D5000A0423CDD8248A0421FDD00249FED82ABE3
:103D60009DED060B53EC1A2B51EC100BFCF756FC97
:103D70009DED060B41EC190B53EC1A2B51EC100B7B
:103D8000FCF7A8FA53EC182BFCF7E9FC53EC192BC1
:103D9000FCF712FBCDE9060149E09DED060B01247D
:103DA00053EC182B51EC100BFCF738FC9DED060B77
:103DB00041EC190B53EC182B51EC100BFCF7CFFC1A
:103DC00053EC192BFCF7F8FACDE906012FE068480F
:103DD000A0421FDD02249FED689B9DED060B53EC76
:103DE000192B51EC100BFCF775FA53EC182BFCF760
:103DF00015FC9DED060B41EC180B53EC192B51EC07
:103E0000100BFCF7ACFC53EC182BFCF7D5FACDE902
:103E100006010CE09DED060B032453EC102B9FEDE7
:103E2000580B51EC100BFCF7C7FACDE906019DEDDC
:103E3000060B53EC102B51EC100BFCF74BFA41EC3A
:103E4000180B53EC182BFCF745FA41EC190B4E48B4
:103E50000621B0EE490AF0EE690A784400F09CF9B8
:103E600053EC182B51EC100BFCF734FA41EC180B07
:103E70004648B0EE490AF0EE690A0521784400F0A0
:103E80008BF953EC192B51EC100BFCF723FA41EC96
:103E9000100B51EC180B53EC102B002C0EDAFCF726
:103EA000BDFB9DED061B53EC112BFCF713FA9DEDAA
:103EB000061B53EC112BFCF755FC35E0FCF7AEFB71
:103EC0009DED061B53EC112BFCF704FA41EC100B93
:103ED0002F48784400EBC40090ED001B51EC100B10
:103EE00053EC112BFCF73BFC9DED061B53EC112B07
:103EF000FCF735FC41EC100B2648784400EBC4007D
:103F000090ED001B51EC100B53EC112BFCF72AFC2D
:103F100041EC100B002DA2BFBDEC068B02B070BDB2
:103F200051EC100B81F0004141EC100B01E7000057
:103F3000000010440000F07F182D4454FB21F93F8D
:103F4000182D4454FB21F9BF0000DC3F0000203E47
:103F50000000F33F00000000000000000000F03F00
:103F60000000E63F000000000000000000000040EC
:103F70000080034000000000000000000000F83F47
:103F8000000000000000F0BFEA250000A0250000AE
:103F90002A250000E224000070B56F4E2DED040BC1
:103FA0002DED048B82B0DDF824C0DDE907235C42EF
:103FB0002CF000411C4341EAD474069D22F00040DD
:103FC000B44205D86C422C4340EAD474B4420BD9B5
:103FD0009DED081B9DED060B02B0BDEC048B04B0FB
:103FE000BDE8704000F05EB9ACF14054A4F17F64CC
:103FF0001C430BD0022404EAAC7444EAD274054397
:104000009FED578B9FED582B07D015E09DED060BCC
:1040100051EC100B00F086F942E0002C11BF012C8E
:104020009DED060B02B0BDEC048B04BF04B070BD67
:10403000022C38D0032C3BD00B439FED4D1B9FED42
:104040004E0B0AD0B14218D1B04209D121F08041C3
:1040500020F08040099107900FE0002A15DA10E067
:10406000474B7B44002C08BF93ED000B0DD0012C77
:1040700010D0022C17D0032C1AD0B0421DD1002A28
:1040800003DAB0EE410AF0EE610A02B0BDEC048B37
:1040900004B070BD93ED000B51EC100B81F00041AA
:1040A00041EC100BF1E7B0EE480AF0EE680AECE7DD
:1040B000B0EE420AF0EE620AE7E7401A00159FED03
:1040C000329B3C28C8BF8DED000B17DCBCF1000F04
:1040D000BCBF10F13C0F8DED009B0FDB9DED080B7D
:1040E00053EC102B9DED060B51EC100BFCF764F913
:1040F00000F050F900F016F9CDE90001B4B1012C3F
:1041000010D0022C9FED220B53EC102B9DED000BD9
:1041100051EC100B19D0FCF722FB53EC182BFCF7D9
:104120001EFBBDE7019880F0004001909DED000B63
:1041300053EC192B51EC100BFCF718FB04BF0220B9
:1041400000F0EAF89DED000B9FE7FCF708FB53EC4D
:10415000182BFCF707FBA3E70000F07F000000002E
:10416000182D4454FB210940182D4454FB2109C04B
:10417000182D4454FB21F9BF182D4454FB21F93F5D
:1041800012240000000000000000000000000000F9
:10419000075C143326A6A13C70B504462DED028BB6
:1041A0004D1E00EBC500B0EE408AF0EE608A90ED47
:1041B000000B35F0060017D053EC182B51EC100B08
:1041C000FCF788F841EC100B6D1E04EBC50090ED78
:1041D000001B51EC100B53EC112BFCF71FFA41ECB8
:1041E000100B35F00600E7D1022D36D0042D1CD07F
:1041F000062D1CBFBDEC028B70BD53EC182B51EC8F
:10420000100BFCF767F894ED0A1B53EC112BFCF72D
:1042100005FA53EC182BFCF75DF894ED081B53ECF2
:10422000112BFCF7FBF941EC100B53EC182B51EC64
:10423000100BFCF74FF894ED061B53EC112BFCF719
:10424000EDF953EC182BFCF745F894ED040B53EC07
:10425000102BFCF7E3F941EC100B53EC182B51EC4D
:10426000100BFCF737F894ED021B53EC112BFCF705
:10427000D5F953EC182BFCF72DF894ED001B53ECFB
:10428000112BFCF7CBF9BDEC028B41EC100B70BD90
:1042900010B553EC102B51EC100BFCF7BFF941ECAF
:1042A000100B10BD10B553EC112B51EC100BFCF79B
:1042B000B5F941EC100B10BD9FED050B10B553EC9B
:1042C000102B51EC100BFCF777F841EC100B10BDE4
:1042D00000000000000000009FED050B10B553EC3E
:1042E000102B51EC100BFBF7F5FF41EC100B10BD40
:1042F000000000000000001002E008C8121F08C102
:10430000002AFAD170477047002001E001C1121F56
:10431000002AFBD170470000014908607047000087
:104320006001002010B541EC100BFFF7C9FC51EC07
:10433000100B10BD30B50446002504E04FF47A7030
:1043400000F004F86D1CA542F8D330BD70B50346EB
:1043500000224FF0E02675690D4E366803FB06F427
:104360004FF0E026B16910E04FF0E026B0698842D6
:104370000BD0884202D20E1A324402E02E1A0E44AA
:1043800032440146A24200D300E0EDE700BF70BD19
:104390002400002082B0CDE9000121F0004001900E
:1043A0009DED000B02B051EC100B7047F0EE400A8F
:1043B000F6EE001A60EEA11AB0EE611AB0EE600AD5
:1043C00010EE100A0749A1EB600000EE100A21EE82
:1043D000002AF7EE081A42EE401A61EE801AB0EE9B
:1043E000610A7047865A375F10B56420FEF7ECFE0D
:1043F0004FF4FA60FFF79EFF4FF4E130FFF712F938
:10440000FDF772F8FCF778FBFCF7AAFA4FF4FA70A4
:10441000FFF790FFFCF7A4FC002010BD2DE9F04150
:1044200005460E461C4807681C480068001D00F041
:104430008DFE50B91948006890F82C100120884072
:1044400017490968814316480160681C38B936B1BC
:1044500012480168091D134800F0B6FE1AE07C19E5
:104460000E4800684460BC4207D20C480168091D30
:104470000D48006800F08EFE0CE008480168091D38
:104480000A48006800F086FE09480068844201D2AC
:1044900007480460BDE8F0813C00002028000020AF
:1044A0004000002058020020300000202C00002096
:1044B0005800002010B5044600F092FE2448006821
:1044C000401C234908602348006840B92148046023
:1044D0000846006801280DD100F0DEF90AE01E4808
:1044E000006838B91B480068C06AE16A884201D890
:1044F0001848046019480068401C184908600846BC
:104500000068206494F82C10012088401449096840
:10451000084313490860E16A01EB8101114A02EB8B
:104520008100211D00F050FE00F084FE0A48006862
:1045300068B108480068C06AE16A884207D24FF053
:10454000805009490860BFF34F8FBFF36F8F10BDD4
:1045500038000020280000204400002054000020E3
:1045600040000020A401002004ED00E010B500F0A0
:1045700037FE10480068D0B90F4800F0FBFD0F4827
:1045800000F0F8FD0C480E4908600C480D49086021
:1045900000220C210A2001F06DF906490860084646
:1045A000006820B108A10348006800F0F7FE00F0A1
:1045B00041FE10BD6C0000206C0200208002002033
:1045C0006400002068000020546D7251000000005B
:1045D00070B523E001F048F81348006808B90120DD
:1045E00000E00020054601F0CFFDBDB900F0F8FD68
:1045F0000D48C068C468201D00F0A8FD0B48006885
:10460000401E0A4908600A480068401E08490860C0
:1046100000F010FE204600F060F800BF044800687B
:104620000028D7D170BD00004402002038000020CF
:104630003400002070B504460D46206C70B1216C2A
:10464000E0680844E0606168E068884201D320685F
:10465000E0602846226CE168FBF718FE70BD2DE98A
:10466000F04104460F4615464FF00008A66B206C3B
:1046700040B9206860BB606801F0D6FC804600202D
:10468000606025E07DB93946226CA068FBF7FEFD2D
:10469000216CA0680844A060D4E90110884217D3B7
:1046A0002068A06014E03946226CE068FBF7EEFD5C
:1046B000216CE068401AE0602168E068884203D21B
:1046C000216C6068401AE060022D01D106B1761EAF
:1046D000701CA0634046BDE8F08110B50446206B15
:1046E00000F0C6FD204600F0C3FD10BD0146084A9B
:1046F000126812680AB9012200E000220A600A6802
:1047000022B9034A1268D268106800E0002070479E
:104710006400002030B54FF49633174800F00704CA
:104720002CB1C01D20F00700134C041B1B1B0246BC
:10473000124C22600024114D6C60D018083820F013
:1047400007000F4C206000240D4D2D686C600C4D4F
:104750002D682C601146441A4C60094C24680C608A
:10476000084D4C682C60084D4C682C604FF000449C
:10477000064D2C6030BD0000940200208400002013
:104780008C00002094000020900000209800002061
:1047900000BFFFF71DFF064800680128F9D94FF058
:1047A000805004490860BFF34F8FBFF36F8FF0E76D
:1047B000A401002004ED00E02DE9F04106460D467D
:1047C00017469846069C0DB9246000E02760E66312
:1047D00025640121204601F05BF984F84C80BDE896
:1047E000F0812DE9F05F82460F4690469B460A9E77
:1047F0000C9C4FEA8801A522206BFBF759FDA8F11C
:104800000100216B01EB800929F0070909F007007D
:1048100008B9012000E0002050B900BF502080F30B
:104820001188BFF34F8FBFF36F8F00BF00BFFEE74C
:10483000002507E0795D04F134004155785D00B949
:1048400002E06D1C0A2DF5D300BF00213D2001556B
:10485000052E00D30426E662A6640020E064201D35
:1048600000F095FC04F1180000F091FC2461C6F101
:104870000500A06164620020206584F854005A4657
:104880005146484600F03AFB20600B9808B10B985F
:104890000460BDE8F09F000010B5002407E004EBC1
:1048A00084010F4A02EB810000F064FC641C052CBB
:1048B000F5D30C4800F05EFC0B4800F05BFC0B48A5
:1048C00000F058FC0A4800F055FC0A4800F052FC81
:1048D00004480949086004480849086010BD000000
:1048E000A4010020080200201C0200203002002049
:1048F00044020020580200202C000020300000203C
:1049000010B50146164800E0006803688B42FBD3EF
:104910000246436813448B4204D143684C682344E5
:10492000436001460A464B6813440468A34211D110
:104930000C4C03682468A34208D04B680468646880
:1049400023444B6003681B680B6005E0054B1B6844
:104950000B6001E003680B60884200D0016010BD6D
:10496000840000208C0000202DE9F04104460D4613
:1049700016461F464FF0000865602461B5420CD80A
:10498000F01BA169884202D34FF0010811E0211DFC
:104990000948006800F0FEFB0BE0BE4204D2BD42B5
:1049A00002D34FF0010804E0211D0448006800F024
:1049B000F1FB4046BDE8F081680000206400002063
:1049C00070B5054600F00CFCA86B08B9012400E0A6
:1049D000002400F02FFC204670BD70B5054600F0A5
:1049E000FFFBA86BE96B884201D1012400E00024A1
:1049F00000F020FC204670BDF8B505460F4616486D
:104A00000068C068C468201D00F0A0FBE0690128B0
:104A10001DD1A06941192B463A462046FFF7A4FF55
:104A2000A8B1002003462A4601460090204601F026
:104A300059FC064656B900BF502080F31188BFF3D9
:104A40004F8FBFF36F8F00BF00BFFEE700BF204650
:104A5000616A8847F8BD00006400002070B586B028
:104A60006AE00398002867DB059C606908B90120AB
:104A700000E0002010B9201D00F068FB02A800F043
:104A8000BDF8054603980A2854D2DFE800F009056E
:104A90000731334F0608323400BF00BF00BF00BFEC
:104AA0000498A269811803462A462046FFF75CFF56
:104AB000E8B12046616A8847E069012817D10020E3
:104AC00000900498A169421800231946204601F07D
:104AD00009FC064656B900BF502080F31188BFF389
:104AE0004F8FBFF36F8F00BF00BFFEE700BF22E014
:104AF00000BF20E000BF0498A061A06908B10120B8
:104B000000E0002050B900BF502080F31188BFF3AF
:104B10004F8FBFF36F8F00BF00BFFEE7A069411941
:104B20002B462A462046FFF71FFF04E0204600F0F0
:104B30009FFB00E000BF00BF00231A4603A9044802
:104B4000006800F0C3FE00288BD106B070BD0000E5
:104B50006C000020F8B505460C4600F085FD68465F
:104B600000F04CF80646009820BB44B9B54206D880
:104B700001F00AFB31462846FFF73EFF1CE03CB13E
:104B80000E480068006808B9012000E000200446D3
:104B9000A91B22460A48006800F016FC01F0F4FA4E
:104BA00050B94FF0805007490860BFF34F8FBFF3F3
:104BB0006F8F01E001F0E8FAF8BD00006800002006
:104BC0006C00002004ED00E00A490968096809B991
:104BD000012100E0002121B14FF0FF31064A1160B0
:104BE00006E004490968C968C868034A4168116059
:104BF000704700002C0000205800002070B50446CB
:104C000001F068F9054607480068854204D200F0C3
:104C10000BF80120206001E00020206001480560C1
:104C2000284670BD740000202DE9F84332E0244886
:104C30000068C068056822480068C068C468201D14
:104C400000F084FA2046616A8847E069012821D192
:104C5000A0694619AE4207D966602461211D184833
:104C6000006800F097FA15E0002003462A46014646
:104C70000090204601F036FB074657B900BF502090
:104C800080F31188BFF34F8FBFF36F8F00BF00BF5A
:104C9000FEE700BF0A480068006808B9012000E08C
:104CA00000200028C3D00648D0F8008005480068DE
:104CB000034908600348C0F80080BDE8F88300009D
:104CC00064000020680000200E480068401C08B9FD
:104CD000012000E0002050B900BF502080F311886F
:104CE000BFF34F8FBFF36F8F00BF00BFFEE700BF62
:104CF000502080F31188BFF34F8FBFF36F8F00BF39
:104D000000BFFEE77800002008B500BF6846FFF747
:104D1000EDFC044620460099FFF71CFFFFF79EFEBE
:104D2000F4E770B5044600F05BFA94F9455010E0E2
:104D3000606A08B9012000E0002038B904F12400BD
:104D400001F0D6F918B100F093FB00E003E0681E13
:104D500045B2002DECDC00BFFF2084F8450000F0D8
:104D600069FA00F03DFA94F9445010E0206908B95E
:104D7000012000E0002048B904F1100001F0B8F96A
:104D800008B100F075FB681E45B200E001E0002D9F
:104D9000ECDC00BFFF2084F8440000F04BFA70BD4B
:104DA0002DE9F04104464FF0000800F05DFC464854
:104DB000006808B9FFF7AEFC4448006820400028AE
:104DC0006BD1D4B1083404F00700B0B104F007008F
:104DD000C0F10800044404F0070008B9012000E015
:104DE000002050B900BF502080F31188BFF34F8FCF
:104DF000BFF36F8F00BF00BFFEE7002C4DD03448DB
:104E00000068844249D8334E3046056801E02E469A
:104E10002D686868A04202D228680028F7D12A4885
:104E20000068854239D0306800F108082868306091
:104E30006868001B102819D92F1907F0070008B956
:104E4000012000E0002050B900BF502080F31188FD
:104E5000BFF34F8FBFF36F8F00BF00BFFEE76868DF
:104E6000001B78606C603846FFF74AFD1849686897
:104E70000968081A16490860084600681649096852
:104E8000884203D212480068134908600F496868D5
:104E90000968084368600020286001F075F908F08F
:104EA000070008B9012000E0002050B900BF5020E1
:104EB00080F31188BFF34F8FBFF36F8F00BF00BF28
:104EC000FEE74046BDE8F0818C00002098000020FD
:104ED0009000002084000020940000200648006814
:104EE00030B10549096801F14C00C96C491C0160E9
:104EF000014800687047000028000020001F4FF0A4
:104F000080730360001F21F001030360001F054B45
:104F1000036014380260001F6FF002030360203842
:104F200070470000C94C000800B52DED048B83B01C
:104F300041EC190BFBF775FC41EC180B18EE100A4D
:104F400018EE901A8DED008B002818BF0120084341
:104F500020F00040C0F17F6000F1E040C00F14D0AD
:104F600019EE101A19EE900A8DED009B002918BF5A
:104F70000121084320F00040C0F17F6000F1E040D3
:104F8000C00F04BF0120FFF7C7F951EC180B03B0A5
:104F9000BDEC048B00BD00004288017942EA01218A
:104FA00009B2604A1180C288017A42EA012109B23D
:104FB0005C4A51804289017B42EA0121594AD180F1
:104FC000C289017C42EA0121564A9180817C11729A
:104FD000017D51721146C98800EE101AB8EE400AE0
:104FE000DFED510A20EE200A114681ED030AB1F9E6
:104FF000001000EE101AB8EEC00ADFED4C0A80EE89
:10500000201A114681ED041AB1F9021000EE101AAF
:10501000B8EEC00ADFED450A80EE201A114681ED98
:10502000051AD1ED040A898800EE101AB8EE400A7C
:1050300020EE800A1146D1ED030A80EE201A3C4989
:1050400081ED001A1146D1ED050A898800EE101A8B
:10505000B8EE400A20EE800A1146D1ED030A80EE38
:10506000201A344981ED001A1146D1ED030A324964
:1050700091ED000A2E4991ED001A01EE200A2E4909
:1050800081ED000A1146D1ED030A2C4991ED000A89
:10509000284991ED001A01EE200A284981ED000A05
:1050A000254991ED000ADFED260AB4EEE00AF1EEA3
:1050B00010FA02DD9FED230A0FE01F4991ED000A6F
:1050C000DFED210AB4EEE00AF1EE10FA02D29FED14
:1050D0001D0A02E0184991ED000A174981ED000A06
:1050E000164991ED000ADFED160AB4EEE00AF1EE82
:1050F00010FA02DD9FED130A0FE0104991ED000A4E
:10510000DFED110AB4EEE00AF1EE10FA02D29FEDE3
:105110000D0A02E0094991ED000A084981ED000AF3
:1051200070470000D4360120BD37863500401C464C
:10513000A4000020A8000020AC000020B000002047
:105140000000FA43000000000000FAC301460A69AB
:10515000D1E901309860D1E9010358605068884274
:1051600001D188685060002008611068401E1060FE
:105170001068704700F1080141604FF0FF31816015
:1051800000F10801C1600161002101607047002148
:105190000161704710B502460B685C1C0CB91069C0
:1051A00007E002F1080000E04068446824689C427F
:1051B000FAD944684C604C68A160886041600A611B
:1051C0001468641C146010BD42684A6093688B6068
:1051D000936859609160086103685B1C03607047C5
:1051E00000BF502080F31188BFF34F8FBFF36F8F44
:1051F00000BF0E480068401C0C4908600846006863
:10520000012812D10A480068C0B208B9012000E0A4
:10521000002050B900BF502080F31188BFF34F8F9A
:10522000BFF36F8F00BF00BFFEE77047780000201C
:1052300004ED00E00D48006850B900BF502080F335
:105240001188BFF34F8FBFF36F8F00BF00BFFEE722
:1052500006480068401E054908600846006820B9F5
:10526000002080F3118800BF00BF70477800002045
:1052700070B506463546002E3FD0083D2C461F49E6
:1052800060680968084008B1012000E0002050B9BA
:1052900000BF502080F31188BFF34F8FBFF36F8F93
:1052A00000BF00BFFEE7206808B9012000E0002031
:1052B00050B900BF502080F31188BFF34F8FBFF368
:1052C0006F8F00BF00BFFEE70C49606809680840A7
:1052D00098B1206888B909496068096888436060A6
:1052E00000F0C2F90649606809680844044908608A
:1052F0002046FFF705FB00F047FF70BD9800002037
:1053000090000020064800684FF47A71B0FBF1F07D
:10531000401E4FF0E02148610720086170470000FF
:105320000000002070B5FAF79BFF0446102C16D33E
:1053300004F1E02090F8F05315480078854201DB35
:10534000012000E0002050B900BF502080F31188F8
:10535000BFF34F8FBFF36F8F00BF00BFFEE70D4855
:10536000006800F4E0600C490968884201D8012017
:1053700000E0002050B900BF502080F31188BFF337
:105380004F8FBFF36F8F00BF00BFFEE770BD0000FF
:105390007C0000200CED00E0800000200246002090
:1053A0000BE0084B53F8303033B9064B43F830105C
:1053B00003EBC0035A6002E0401C0828F1D300BF91
:1053C00070470000640100202DE9F04105460E46BB
:1053D00017462C46FFF704FF94F94400401C10B90F
:1053E000002084F8440094F94500401C10B90020C6
:1053F00084F84500FFF71EFFA06B28B93A463146F6
:1054000004F1240000F056F82046FFF78AFCBDE8BE
:10541000F081000070B504460025D4B11248006840
:1054200008B9012000E0002050B900BF502080F3EF
:105430001188BFF34F8FBFF36F8F00BF00BFFEE730
:1054400000F012F900212046FEF7E8FF00F09CFE74
:1054500005463DB94FF0805004490860BFF34F8FB7
:10546000BFF36F8F70BD00006000002004ED00E00E
:1054700001200149086070474C00002070B50446C7
:105480000D4654B900BF502080F31188BFF34F8FF1
:10549000BFF36F8F00BF00BFFEE7054801681831FA
:1054A0002046FFF777FE01212846FEF7B7FF70BDC3
:1054B0002800002070B505460E46144655B900BFB9
:1054C000502080F31188BFF34F8FBFF36F8F00BF61
:1054D00000BFFEE70648016818312846FFF774FE52
:1054E0000CB14FF0FF3621463046FEF797FF70BDF6
:1054F0002800002070B505462C46002D4BD02649CB
:10550000E06A0968C96A884245D2A06900F0004093
:1055100028B921480068C06AC0F10500A061E16AAD
:1055200001EB81011D4A02EB81016069884201D1D2
:10553000012000E0002050B3201DFFF707FE78B9DE
:10554000E06A00EB8000154951F8200040B994F85A
:105550002C100120884012490968814310480160DD
:105560000D480068C06AE06294F82C100120884061
:105570000B49096808430A490860E16A01EB8101A7
:10558000064A02EB8100211DFFF71EFE03E00248E0
:105590000068C06AE06270BD28000020A4010020FD
:1055A0004000002050B900BF502181F31188BFF3A3
:1055B0004F8FBFF36F8F00BF00BFFEE7034909683D
:1055C00001600349096841607047000050000020F5
:1055D0003C0000201CB51D4800210B468222CDE96D
:1055E00000101BA11C4800F035FC0446012C02D120
:1055F00000F04CFE0446012C15D100BF502080F372
:105600001188BFF34F8FBFF36F8F00BF4FF0FF3094
:105610001249086001201249086000201149086001
:1056200000F070F810E0601C08B1012000E00020DC
:1056300050B900BF502080F31188BFF34F8FBFF3E4
:105640006F8F00BF00BFFEE71CBD00005C000020A4
:1056500049444C45000000009147000858000020D4
:10566000440000203C00002002480068401C014922
:1056700008607047600000201D48006818B10120D4
:105680001C49086032E000201A4908601A48006886
:10569000B0FA80F0C0F11F0101EB8100174A52F807
:1056A000200008B1012000E0002050B900BF5020C8
:1056B00080F31188BFF34F8FBFF36F8F00BF00BF20
:1056C000FEE701EB81020D4B03EB8200426852685A
:1056D000426000F108024368934202D14268526876
:1056E00042604268D268064B1A6000BF70470000F3
:1056F000600000204C00002040000020A401002099
:10570000280000201CB5474800684749884201D05E
:10571000012000E0002050B900BF502080F3118824
:10572000BFF34F8FBFF36F8F00BF00BFFEE73D4851
:1057300000683D49491E884201D0012000E0002058
:1057400050B900BF502080F31188BFF34F8FBFF3D3
:105750006F8F00BF00BFFEE7344908460078019014
:10576000FF200A4610700846007800909DF800005F
:1057700000F0F0009DF80020904201D1012000E0EF
:10578000002050B900BF502080F31188BFF34F8F25
:10579000BFF36F8F00BF00BFFEE79DF8000000F071
:1057A0005000234A10700720224A106009E0214867
:1057B0000068401E1F4A10609DF800004006000E61
:1057C00000909DF8000000F080008028EFD019487C
:1057D00000680002174A10601046008800F4E0607C
:1057E0001060124A019810700E482030006840F492
:1057F00070000C49203108600846006840F0704095
:105800000860FFF77FFD00200B490860FAF7F0FC05
:105810000A48006840F0404008490860FAF7D8FCA0
:1058200000201CBD00ED00E071C20F4100E400E06B
:105830007C000020800000207800002034EF00E091
:1058400010B500BF502080F31188BFF34F8FBFF316
:105850006F8F00BF00F044FB18B14FF08050044937
:10586000086000BF002080F3118800BF10BD000059
:1058700004ED00E02DE9F84305460E4690460DB1D3
:10588000012000E0002050B900BF502080F31188B3
:10589000BFF34F8FBFF36F8F00BF00BFFEE70EB99E
:1058A000002701E005FB06F707F15000FFF778FA43
:1058B000044644B104F1500943464A46314628465D
:1058C0000094FEF779FF2046BDE8F8832DE9FF47F5
:1058D00082B005460E461F464FF0000A2C4654B9CA
:1058E00000BF502080F31188BFF34F8FBFF36F8F3D
:1058F00000BF00BFFEE70EB9206C08B9012000E030
:10590000002050B900BF502080F31188BFF34F8FA3
:10591000BFF36F8F00BF00BFFEE700F0CBFA08B9FE
:10592000049808B9012000E0002050B900BF5020C1
:1059300080F31188BFF34F8FBFF36F8F00BF00BF9D
:10594000FEE700BFFFF74CFCD4F83890B9F1000F28
:105950003DD0D4F80C8031462046FEF76BFEDFB90F
:10596000A9F10100A063206810B9FFF7B7FA6060E1
:10597000206908B9012000E0002010BB04F11000EC
:1059800000F0B6FBE8B14FF0805040490860BFF32B
:105990004F8FBFF36F8F14E0C4F80C80606A08B9B2
:1059A000012000E0002060B904F1240000F0A0FB19
:1059B00038B14FF0805035490860BFF34F8FBFF3C7
:1059C0006F8FFFF737FC012006B0BDE8F087049821
:1059D00018B9FFF72FFC0020F6E7BAF1000F04D149
:1059E0006846FFF7DFFD4FF0010AFFF723FCFFF7E2
:1059F0003BFEFFF7F5FB94F94400401C10B9002072
:105A000084F8440094F94500401C10B9002084F843
:105A10004500FFF70FFC04A9684600F0D5F940BB2C
:105A20002046FEF7CDFFF0B1206830B9FFF7D8FB74
:105A30006068FFF75FFDFFF7FDFB04F124000499A8
:105A4000FFF71CFD2046FFF76CF900F09DFB0028D6
:105A50007FF478AF4FF080500C490860BFF34F8F50
:105A6000BFF36F8F6EE72046FFF75BF900F08CFB0A
:105A700068E72046FFF755F900F086FB2046FEF761
:105A80009FFF0028EED000209EE7000004ED00E01C
:105A900070B505460E462C4654B900BF502080F321
:105AA0001188BFF34F8FBFF36F8F00BF00BFFEE7BA
:105AB000FFF796FBD4E90F12206801FB020060603B
:105AC0000020A0632068A060E06B401E226C21686B
:105AD00000FB0210E060FF2084F8440084F84500D9
